{
  "contractName": "Demo1",
  "abi": [
    {
      "constant": true,
      "inputs": [],
      "name": "data",
      "outputs": [
        {
          "internalType": "uint256",
          "name": "",
          "type": "uint256"
        }
      ],
      "payable": false,
      "stateMutability": "view",
      "type": "function"
    },
    {
      "constant": false,
      "inputs": [
        {
          "internalType": "uint256",
          "name": "_data",
          "type": "uint256"
        }
      ],
      "name": "setData",
      "outputs": [],
      "payable": false,
      "stateMutability": "nonpayable",
      "type": "function"
    }
  ],
  "bytecode": "0x608060405234801561001057600080fd5b5060c38061001f6000396000f3fe6080604052348015600f57600080fd5b506004361060325760003560e01c80635b4b73a914603757806373d4a13a146062575b600080fd5b606060048036036020811015604b57600080fd5b8101908080359060200190929190505050607e565b005b60686088565b6040518082815260200191505060405180910390f35b8060008190555050565b6000548156fea265627a7a723158207fa9c2f4cd7b2b4d5f96526562aad9646b623d400d55eb0614b285f3112052b064736f6c63430005100032",
  "source": "pragma solidity ^0.5.16;\n\ncontract Demo1 {\n    uint public data;\n    function setData(uint _data) public {\n        data = _data;\n    }\n}\n\ncontract Demo2 {\n    function toSetData(Demo1 demo1, uint _data) public {\n        demo1.setData(_data);\n    }\n}\n",
  "sourcePath": "/Users/werlandy/defi/clover-sdk/tests/inner-contract-tests/contracts/Inner.sol",
  "compiler": {
    "name": "solc",
    "version": "0.5.16+commit.9c3226ce.Emscripten.clang"
  },
  "schemaVersion": "3.3.2",
  "updatedAt": "2020-12-17T06:49:35.548Z",
  "devdoc": {
    "methods": {}
  },
  "userdoc": {
    "methods": {}
  }
}